{
  "_format": "hh-sol-artifact-1",
  "contractName": "Marketplace",
  "sourceName": "contracts/Marketplace.sol",
  "abi": [
    {
      "inputs": [],
      "stateMutability": "nonpayable",
      "type": "constructor"
    },
    {
      "anonymous": false,
      "inputs": [
        {
          "indexed": false,
          "internalType": "uint256",
          "name": "itemId",
          "type": "uint256"
        },
        {
          "indexed": true,
          "internalType": "address",
          "name": "nft",
          "type": "address"
        },
        {
          "indexed": false,
          "internalType": "uint256",
          "name": "tokenId",
          "type": "uint256"
        },
        {
          "indexed": false,
          "internalType": "uint256",
          "name": "price",
          "type": "uint256"
        },
        {
          "indexed": true,
          "internalType": "address",
          "name": "seller",
          "type": "address"
        }
      ],
      "name": "Offered",
      "type": "event"
    },
    {
      "inputs": [
        {
          "internalType": "uint256",
          "name": "itemId",
          "type": "uint256"
        }
      ],
      "name": "checkActive",
      "outputs": [],
      "stateMutability": "nonpayable",
      "type": "function"
    },
    {
      "inputs": [],
      "name": "feeAccount",
      "outputs": [
        {
          "internalType": "address payable",
          "name": "",
          "type": "address"
        }
      ],
      "stateMutability": "view",
      "type": "function"
    },
    {
      "inputs": [
        {
          "internalType": "uint256",
          "name": "itemId",
          "type": "uint256"
        }
      ],
      "name": "getItemDetail",
      "outputs": [
        {
          "components": [
            {
              "internalType": "uint256",
              "name": "itemId",
              "type": "uint256"
            },
            {
              "internalType": "uint256",
              "name": "price",
              "type": "uint256"
            },
            {
              "internalType": "address",
              "name": "owner",
              "type": "address"
            },
            {
              "internalType": "string",
              "name": "name",
              "type": "string"
            },
            {
              "internalType": "string",
              "name": "registrationNumber",
              "type": "string"
            },
            {
              "internalType": "uint256",
              "name": "timestamp",
              "type": "uint256"
            },
            {
              "internalType": "uint256",
              "name": "duration",
              "type": "uint256"
            },
            {
              "internalType": "bool",
              "name": "active",
              "type": "bool"
            }
          ],
          "internalType": "struct Marketplace.Details",
          "name": "",
          "type": "tuple"
        }
      ],
      "stateMutability": "view",
      "type": "function"
    },
    {
      "inputs": [
        {
          "internalType": "uint256",
          "name": "itemId",
          "type": "uint256"
        }
      ],
      "name": "getMessageNFT",
      "outputs": [
        {
          "components": [
            {
              "internalType": "address",
              "name": "customer",
              "type": "address"
            },
            {
              "internalType": "uint256",
              "name": "itemId",
              "type": "uint256"
            },
            {
              "internalType": "uint256",
              "name": "price",
              "type": "uint256"
            },
            {
              "internalType": "string",
              "name": "reason",
              "type": "string"
            }
          ],
          "internalType": "struct Marketplace.message[]",
          "name": "",
          "type": "tuple[]"
        }
      ],
      "stateMutability": "view",
      "type": "function"
    },
    {
      "inputs": [],
      "name": "getMessageOwner",
      "outputs": [
        {
          "components": [
            {
              "internalType": "address",
              "name": "customer",
              "type": "address"
            },
            {
              "internalType": "uint256",
              "name": "itemId",
              "type": "uint256"
            },
            {
              "internalType": "uint256",
              "name": "price",
              "type": "uint256"
            },
            {
              "internalType": "string",
              "name": "reason",
              "type": "string"
            }
          ],
          "internalType": "struct Marketplace.message[]",
          "name": "",
          "type": "tuple[]"
        }
      ],
      "stateMutability": "view",
      "type": "function"
    },
    {
      "inputs": [],
      "name": "itemCount",
      "outputs": [
        {
          "internalType": "uint256",
          "name": "",
          "type": "uint256"
        }
      ],
      "stateMutability": "view",
      "type": "function"
    },
    {
      "inputs": [
        {
          "internalType": "uint256",
          "name": "",
          "type": "uint256"
        }
      ],
      "name": "itemDetails",
      "outputs": [
        {
          "internalType": "uint256",
          "name": "itemId",
          "type": "uint256"
        },
        {
          "internalType": "uint256",
          "name": "price",
          "type": "uint256"
        },
        {
          "internalType": "address",
          "name": "owner",
          "type": "address"
        },
        {
          "internalType": "string",
          "name": "name",
          "type": "string"
        },
        {
          "internalType": "string",
          "name": "registrationNumber",
          "type": "string"
        },
        {
          "internalType": "uint256",
          "name": "timestamp",
          "type": "uint256"
        },
        {
          "internalType": "uint256",
          "name": "duration",
          "type": "uint256"
        },
        {
          "internalType": "bool",
          "name": "active",
          "type": "bool"
        }
      ],
      "stateMutability": "view",
      "type": "function"
    },
    {
      "inputs": [
        {
          "internalType": "uint256",
          "name": "",
          "type": "uint256"
        }
      ],
      "name": "items",
      "outputs": [
        {
          "internalType": "uint256",
          "name": "itemId",
          "type": "uint256"
        },
        {
          "internalType": "contract IERC721",
          "name": "nft",
          "type": "address"
        },
        {
          "internalType": "uint256",
          "name": "tokenId",
          "type": "uint256"
        },
        {
          "internalType": "uint256",
          "name": "price",
          "type": "uint256"
        },
        {
          "internalType": "address payable",
          "name": "seller",
          "type": "address"
        },
        {
          "internalType": "bool",
          "name": "active",
          "type": "bool"
        }
      ],
      "stateMutability": "view",
      "type": "function"
    },
    {
      "inputs": [
        {
          "internalType": "contract IERC721",
          "name": "_nft",
          "type": "address"
        },
        {
          "internalType": "uint256",
          "name": "tokenId",
          "type": "uint256"
        },
        {
          "internalType": "uint256",
          "name": "price",
          "type": "uint256"
        },
        {
          "internalType": "string",
          "name": "name",
          "type": "string"
        },
        {
          "internalType": "string",
          "name": "rNo",
          "type": "string"
        },
        {
          "internalType": "uint256",
          "name": "duration",
          "type": "uint256"
        }
      ],
      "name": "makeItem",
      "outputs": [],
      "stateMutability": "nonpayable",
      "type": "function"
    },
    {
      "inputs": [
        {
          "internalType": "address",
          "name": "",
          "type": "address"
        },
        {
          "internalType": "uint256",
          "name": "",
          "type": "uint256"
        }
      ],
      "name": "messages",
      "outputs": [
        {
          "internalType": "address",
          "name": "customer",
          "type": "address"
        },
        {
          "internalType": "uint256",
          "name": "itemId",
          "type": "uint256"
        },
        {
          "internalType": "uint256",
          "name": "price",
          "type": "uint256"
        },
        {
          "internalType": "string",
          "name": "reason",
          "type": "string"
        }
      ],
      "stateMutability": "view",
      "type": "function"
    },
    {
      "inputs": [
        {
          "internalType": "uint256",
          "name": "",
          "type": "uint256"
        },
        {
          "internalType": "uint256",
          "name": "",
          "type": "uint256"
        }
      ],
      "name": "messagesNFT",
      "outputs": [
        {
          "internalType": "address",
          "name": "customer",
          "type": "address"
        },
        {
          "internalType": "uint256",
          "name": "itemId",
          "type": "uint256"
        },
        {
          "internalType": "uint256",
          "name": "price",
          "type": "uint256"
        },
        {
          "internalType": "string",
          "name": "reason",
          "type": "string"
        }
      ],
      "stateMutability": "view",
      "type": "function"
    },
    {
      "inputs": [
        {
          "internalType": "uint256",
          "name": "itemId",
          "type": "uint256"
        },
        {
          "internalType": "uint256",
          "name": "claimPrice",
          "type": "uint256"
        }
      ],
      "name": "requestClaim",
      "outputs": [],
      "stateMutability": "nonpayable",
      "type": "function"
    },
    {
      "inputs": [
        {
          "internalType": "uint256",
          "name": "itemId",
          "type": "uint256"
        },
        {
          "internalType": "address",
          "name": "customer",
          "type": "address"
        },
        {
          "internalType": "uint256",
          "name": "claimPrice",
          "type": "uint256"
        }
      ],
      "name": "sendClaim",
      "outputs": [
        {
          "internalType": "bool",
          "name": "",
          "type": "bool"
        }
      ],
      "stateMutability": "nonpayable",
      "type": "function"
    },
    {
      "inputs": [],
      "name": "unit",
      "outputs": [
        {
          "internalType": "uint256",
          "name": "",
          "type": "uint256"
        }
      ],
      "stateMutability": "view",
      "type": "function"
    }
  ],
  "bytecode": "0x6080604052670de0b6b3a764000060045534801561001c57600080fd5b50600160008190555033600160006101000a81548173ffffffffffffffffffffffffffffffffffffffff021916908373ffffffffffffffffffffffffffffffffffffffff1602179055507337d4203fae62ccd7b1a78ef58a5515021ed8fd84600360006101000a81548173ffffffffffffffffffffffffffffffffffffffff021916908373ffffffffffffffffffffffffffffffffffffffff16021790555061253f806100ca6000396000f3fe608060405234801561001057600080fd5b50600436106100ea5760003560e01c806385b2461b1161008c578063a3da026111610066578063a3da026114610269578063bfb231d214610285578063c45d9bea146102ba578063dfdefa82146102ed576100ea565b806385b2461b146101fc578063907af6c0146102185780639c39bf4c14610236576100ea565b80636592780f116100c85780636592780f1461017257806365e17c9d146101a25780636a75320b146101c05780636bfb0d01146101de576100ea565b80631fb4e3f0146100ef57806346a16890146101265780635164b3b814610142575b600080fd5b6101096004803603810190610104919061165a565b61031d565b60405161011d989796959493929190611782565b60405180910390f35b610140600480360381019061013b919061180e565b6104a2565b005b61015c6004803603810190610157919061165a565b610673565b604051610169919061197c565b60405180910390f35b61018c6004803603810190610187919061165a565b61085e565b6040516101999190611ac3565b60405180910390f35b6101aa6109cc565b6040516101b79190611b06565b60405180910390f35b6101c86109f2565b6040516101d59190611ac3565b60405180910390f35b6101e6610b8a565b6040516101f39190611b21565b60405180910390f35b61021660048036038101906102119190611caf565b610b90565b005b610220610f47565b60405161022d9190611b21565b60405180910390f35b610250600480360381019061024b919061180e565b610f4d565b6040516102609493929190611d74565b60405180910390f35b610283600480360381019061027e919061165a565b611042565b005b61029f600480360381019061029a919061165a565b6110e2565b6040516102b196959493929190611e1f565b60405180910390f35b6102d460048036038101906102cf9190611eac565b61116b565b6040516102e49493929190611d74565b60405180910390f35b61030760048036038101906103029190611eec565b611260565b6040516103149190611f3f565b60405180910390f35b60086020528060005260406000206000915090508060000154908060010154908060020160009054906101000a900473ffffffffffffffffffffffffffffffffffffffff169080600301805461037290611f89565b80601f016020809104026020016040519081016040528092919081815260200182805461039e90611f89565b80156103eb5780601f106103c0576101008083540402835291602001916103eb565b820191906000526020600020905b8154815290600101906020018083116103ce57829003601f168201915b50505050509080600401805461040090611f89565b80601f016020809104026020016040519081016040528092919081815260200182805461042c90611f89565b80156104795780601f1061044e57610100808354040283529160200191610479565b820191906000526020600020905b81548152906001019060200180831161045c57829003601f168201915b5050505050908060050154908060060154908060070160009054906101000a900460ff16905088565b6007600083815260200190815260200160002060040160009054906101000a900473ffffffffffffffffffffffffffffffffffffffff1673ffffffffffffffffffffffffffffffffffffffff163373ffffffffffffffffffffffffffffffffffffffff161461051057600080fd5b600060405180608001604052803373ffffffffffffffffffffffffffffffffffffffff1681526020018481526020016004548461054d9190611fe9565b81526020016040518060600160405280602281526020016124bb60229139815250905060056000600160009054906101000a900473ffffffffffffffffffffffffffffffffffffffff1673ffffffffffffffffffffffffffffffffffffffff1673ffffffffffffffffffffffffffffffffffffffff16815260200190815260200160002081908060018154018082558091505060019003906000526020600020906004020160009091909190915060008201518160000160006101000a81548173ffffffffffffffffffffffffffffffffffffffff021916908373ffffffffffffffffffffffffffffffffffffffff1602179055506020820151816001015560408201518160020155606082015181600301908161066b91906121cd565b505050505050565b61067b6115b3565b600860008381526020019081526020016000206040518061010001604052908160008201548152602001600182015481526020016002820160009054906101000a900473ffffffffffffffffffffffffffffffffffffffff1673ffffffffffffffffffffffffffffffffffffffff1673ffffffffffffffffffffffffffffffffffffffff16815260200160038201805461071490611f89565b80601f016020809104026020016040519081016040528092919081815260200182805461074090611f89565b801561078d5780601f106107625761010080835404028352916020019161078d565b820191906000526020600020905b81548152906001019060200180831161077057829003601f168201915b505050505081526020016004820180546107a690611f89565b80601f01602080910402602001604051908101604052809291908181526020018280546107d290611f89565b801561081f5780601f106107f45761010080835404028352916020019161081f565b820191906000526020600020905b81548152906001019060200180831161080257829003601f168201915b5050505050815260200160058201548152602001600682015481526020016007820160009054906101000a900460ff1615151515815250509050919050565b606060066000838152602001908152602001600020805480602002602001604051908101604052809291908181526020016000905b828210156109c157838290600052602060002090600402016040518060800160405290816000820160009054906101000a900473ffffffffffffffffffffffffffffffffffffffff1673ffffffffffffffffffffffffffffffffffffffff1673ffffffffffffffffffffffffffffffffffffffff168152602001600182015481526020016002820154815260200160038201805461093090611f89565b80601f016020809104026020016040519081016040528092919081815260200182805461095c90611f89565b80156109a95780601f1061097e576101008083540402835291602001916109a9565b820191906000526020600020905b81548152906001019060200180831161098c57829003601f168201915b50505050508152505081526020019060010190610893565b505050509050919050565b600160009054906101000a900473ffffffffffffffffffffffffffffffffffffffff1681565b6060600560003373ffffffffffffffffffffffffffffffffffffffff1673ffffffffffffffffffffffffffffffffffffffff168152602001908152602001600020805480602002602001604051908101604052809291908181526020016000905b82821015610b8157838290600052602060002090600402016040518060800160405290816000820160009054906101000a900473ffffffffffffffffffffffffffffffffffffffff1673ffffffffffffffffffffffffffffffffffffffff1673ffffffffffffffffffffffffffffffffffffffff1681526020016001820154815260200160028201548152602001600382018054610af090611f89565b80601f0160208091040260200160405190810160405280929190818152602001828054610b1c90611f89565b8015610b695780601f10610b3e57610100808354040283529160200191610b69565b820191906000526020600020905b815481529060010190602001808311610b4c57829003601f168201915b50505050508152505081526020019060010190610a53565b50505050905090565b60025481565b610b9861155a565b60008411610bdb576040517f08c379a0000000000000000000000000000000000000000000000000000000008152600401610bd2906122eb565b60405180910390fd5b60026000815480929190610bee9061230b565b91905055508573ffffffffffffffffffffffffffffffffffffffff166323b872dd3330886040518463ffffffff1660e01b8152600401610c3093929190612353565b600060405180830381600087803b158015610c4a57600080fd5b505af1158015610c5e573d6000803e3d6000fd5b505050506040518060c0016040528060025481526020018773ffffffffffffffffffffffffffffffffffffffff1681526020018681526020018581526020013373ffffffffffffffffffffffffffffffffffffffff168152602001600115158152506007600060025481526020019081526020016000206000820151816000015560208201518160010160006101000a81548173ffffffffffffffffffffffffffffffffffffffff021916908373ffffffffffffffffffffffffffffffffffffffff160217905550604082015181600201556060820151816003015560808201518160040160006101000a81548173ffffffffffffffffffffffffffffffffffffffff021916908373ffffffffffffffffffffffffffffffffffffffff16021790555060a08201518160040160146101000a81548160ff02191690831515021790555090505060405180610100016040528060025481526020018581526020013373ffffffffffffffffffffffffffffffffffffffff16815260200184815260200183815260200142815260200182815260200160011515815250600860006002548152602001908152602001600020600082015181600001556020820151816001015560408201518160020160006101000a81548173ffffffffffffffffffffffffffffffffffffffff021916908373ffffffffffffffffffffffffffffffffffffffff1602179055506060820151816003019081610e7e91906121cd565b506080820151816004019081610e9491906121cd565b5060a0820151816005015560c0820151816006015560e08201518160070160006101000a81548160ff0219169083151502179055509050503373ffffffffffffffffffffffffffffffffffffffff168673ffffffffffffffffffffffffffffffffffffffff167f655a0cf9c8db81512be9a76dc1c5ae5380b8816ce6ad659cd61b715e2999d59a6002548888604051610f2f9392919061238a565b60405180910390a3610f3f6115a9565b505050505050565b60045481565b60066020528160005260406000208181548110610f6957600080fd5b9060005260206000209060040201600091509150508060000160009054906101000a900473ffffffffffffffffffffffffffffffffffffffff1690806001015490806002015490806003018054610fbf90611f89565b80601f0160208091040260200160405190810160405280929190818152602001828054610feb90611f89565b80156110385780601f1061100d57610100808354040283529160200191611038565b820191906000526020600020905b81548152906001019060200180831161101b57829003601f168201915b5050505050905084565b426008600083815260200190815260200160002060060154600860008481526020019081526020016000206005015461107b91906123c1565b116110df5760006008600083815260200190815260200160002060070160006101000a81548160ff02191690831515021790555060006007600083815260200190815260200160002060040160146101000a81548160ff0219169083151502179055505b50565b60076020528060005260406000206000915090508060000154908060010160009054906101000a900473ffffffffffffffffffffffffffffffffffffffff16908060020154908060030154908060040160009054906101000a900473ffffffffffffffffffffffffffffffffffffffff16908060040160149054906101000a900460ff16905086565b6005602052816000526040600020818154811061118757600080fd5b9060005260206000209060040201600091509150508060000160009054906101000a900473ffffffffffffffffffffffffffffffffffffffff16908060010154908060020154908060030180546111dd90611f89565b80601f016020809104026020016040519081016040528092919081815260200182805461120990611f89565b80156112565780601f1061122b57610100808354040283529160200191611256565b820191906000526020600020905b81548152906001019060200180831161123957829003601f168201915b5050505050905084565b6000600160009054906101000a900473ffffffffffffffffffffffffffffffffffffffff1673ffffffffffffffffffffffffffffffffffffffff163373ffffffffffffffffffffffffffffffffffffffff16146112bc57600080fd5b6000600360009054906101000a900473ffffffffffffffffffffffffffffffffffffffff1673ffffffffffffffffffffffffffffffffffffffff166323b872dd33866004548761130c9190611fe9565b6040518463ffffffff1660e01b815260040161132a93929190612353565b6020604051808303816000875af1158015611349573d6000803e3d6000fd5b505050506040513d601f19601f8201168201806040525081019061136d9190612421565b9050600060405180608001604052803373ffffffffffffffffffffffffffffffffffffffff1681526020018781526020018581526020016040518060600160405280602d81526020016124dd602d913981525090506006600087815260200190815260200160002081908060018154018082558091505060019003906000526020600020906004020160009091909190915060008201518160000160006101000a81548173ffffffffffffffffffffffffffffffffffffffff021916908373ffffffffffffffffffffffffffffffffffffffff1602179055506020820151816001015560408201518160020155606082015181600301908161146f91906121cd565b505050600560008673ffffffffffffffffffffffffffffffffffffffff1673ffffffffffffffffffffffffffffffffffffffff16815260200190815260200160002081908060018154018082558091505060019003906000526020600020906004020160009091909190915060008201518160000160006101000a81548173ffffffffffffffffffffffffffffffffffffffff021916908373ffffffffffffffffffffffffffffffffffffffff1602179055506020820151816001015560408201518160020155606082015181600301908161154b91906121cd565b50505081925050509392505050565b60026000540361159f576040517f08c379a00000000000000000000000000000000000000000000000000000000081526004016115969061249a565b60405180910390fd5b6002600081905550565b6001600081905550565b6040518061010001604052806000815260200160008152602001600073ffffffffffffffffffffffffffffffffffffffff168152602001606081526020016060815260200160008152602001600081526020016000151581525090565b6000604051905090565b600080fd5b600080fd5b6000819050919050565b61163781611624565b811461164257600080fd5b50565b6000813590506116548161162e565b92915050565b6000602082840312156116705761166f61161a565b5b600061167e84828501611645565b91505092915050565b61169081611624565b82525050565b600073ffffffffffffffffffffffffffffffffffffffff82169050919050565b60006116c182611696565b9050919050565b6116d1816116b6565b82525050565b600081519050919050565b600082825260208201905092915050565b60005b838110156117115780820151818401526020810190506116f6565b60008484015250505050565b6000601f19601f8301169050919050565b6000611739826116d7565b61174381856116e2565b93506117538185602086016116f3565b61175c8161171d565b840191505092915050565b60008115159050919050565b61177c81611767565b82525050565b600061010082019050611798600083018b611687565b6117a5602083018a611687565b6117b260408301896116c8565b81810360608301526117c4818861172e565b905081810360808301526117d8818761172e565b90506117e760a0830186611687565b6117f460c0830185611687565b61180160e0830184611773565b9998505050505050505050565b600080604083850312156118255761182461161a565b5b600061183385828601611645565b925050602061184485828601611645565b9150509250929050565b61185781611624565b82525050565b611866816116b6565b82525050565b600082825260208201905092915050565b6000611888826116d7565b611892818561186c565b93506118a28185602086016116f3565b6118ab8161171d565b840191505092915050565b6118bf81611767565b82525050565b6000610100830160008301516118de600086018261184e565b5060208301516118f1602086018261184e565b506040830151611904604086018261185d565b506060830151848203606086015261191c828261187d565b91505060808301518482036080860152611936828261187d565b91505060a083015161194b60a086018261184e565b5060c083015161195e60c086018261184e565b5060e083015161197160e08601826118b6565b508091505092915050565b6000602082019050818103600083015261199681846118c5565b905092915050565b600081519050919050565b600082825260208201905092915050565b6000819050602082019050919050565b60006080830160008301516119e2600086018261185d565b5060208301516119f5602086018261184e565b506040830151611a08604086018261184e565b5060608301518482036060860152611a20828261187d565b9150508091505092915050565b6000611a3983836119ca565b905092915050565b6000602082019050919050565b6000611a598261199e565b611a6381856119a9565b935083602082028501611a75856119ba565b8060005b85811015611ab15784840389528151611a928582611a2d565b9450611a9d83611a41565b925060208a01995050600181019050611a79565b50829750879550505050505092915050565b60006020820190508181036000830152611add8184611a4e565b905092915050565b6000611af082611696565b9050919050565b611b0081611ae5565b82525050565b6000602082019050611b1b6000830184611af7565b92915050565b6000602082019050611b366000830184611687565b92915050565b6000611b47826116b6565b9050919050565b611b5781611b3c565b8114611b6257600080fd5b50565b600081359050611b7481611b4e565b92915050565b600080fd5b600080fd5b7f4e487b7100000000000000000000000000000000000000000000000000000000600052604160045260246000fd5b611bbc8261171d565b810181811067ffffffffffffffff82111715611bdb57611bda611b84565b5b80604052505050565b6000611bee611610565b9050611bfa8282611bb3565b919050565b600067ffffffffffffffff821115611c1a57611c19611b84565b5b611c238261171d565b9050602081019050919050565b82818337600083830152505050565b6000611c52611c4d84611bff565b611be4565b905082815260208101848484011115611c6e57611c6d611b7f565b5b611c79848285611c30565b509392505050565b600082601f830112611c9657611c95611b7a565b5b8135611ca6848260208601611c3f565b91505092915050565b60008060008060008060c08789031215611ccc57611ccb61161a565b5b6000611cda89828a01611b65565b9650506020611ceb89828a01611645565b9550506040611cfc89828a01611645565b945050606087013567ffffffffffffffff811115611d1d57611d1c61161f565b5b611d2989828a01611c81565b935050608087013567ffffffffffffffff811115611d4a57611d4961161f565b5b611d5689828a01611c81565b92505060a0611d6789828a01611645565b9150509295509295509295565b6000608082019050611d8960008301876116c8565b611d966020830186611687565b611da36040830185611687565b8181036060830152611db5818461172e565b905095945050505050565b6000819050919050565b6000611de5611de0611ddb84611696565b611dc0565b611696565b9050919050565b6000611df782611dca565b9050919050565b6000611e0982611dec565b9050919050565b611e1981611dfe565b82525050565b600060c082019050611e346000830189611687565b611e416020830188611e10565b611e4e6040830187611687565b611e5b6060830186611687565b611e686080830185611af7565b611e7560a0830184611773565b979650505050505050565b611e89816116b6565b8114611e9457600080fd5b50565b600081359050611ea681611e80565b92915050565b60008060408385031215611ec357611ec261161a565b5b6000611ed185828601611e97565b9250506020611ee285828601611645565b9150509250929050565b600080600060608486031215611f0557611f0461161a565b5b6000611f1386828701611645565b9350506020611f2486828701611e97565b9250506040611f3586828701611645565b9150509250925092565b6000602082019050611f546000830184611773565b92915050565b7f4e487b7100000000000000000000000000000000000000000000000000000000600052602260045260246000fd5b60006002820490506001821680611fa157607f821691505b602082108103611fb457611fb3611f5a565b5b50919050565b7f4e487b7100000000000000000000000000000000000000000000000000000000600052601160045260246000fd5b6000611ff482611624565b9150611fff83611624565b925082820261200d81611624565b9150828204841483151761202457612023611fba565b5b5092915050565b60008190508160005260206000209050919050565b60006020601f8301049050919050565b600082821b905092915050565b60006008830261208d7fffffffffffffffffffffffffffffffffffffffffffffffffffffffffffffffff82612050565b6120978683612050565b95508019841693508086168417925050509392505050565b60006120ca6120c56120c084611624565b611dc0565b611624565b9050919050565b6000819050919050565b6120e4836120af565b6120f86120f0826120d1565b84845461205d565b825550505050565b600090565b61210d612100565b6121188184846120db565b505050565b5b8181101561213c57612131600082612105565b60018101905061211e565b5050565b601f821115612181576121528161202b565b61215b84612040565b8101602085101561216a578190505b61217e61217685612040565b83018261211d565b50505b505050565b600082821c905092915050565b60006121a460001984600802612186565b1980831691505092915050565b60006121bd8383612193565b9150826002028217905092915050565b6121d6826116d7565b67ffffffffffffffff8111156121ef576121ee611b84565b5b6121f98254611f89565b612204828285612140565b600060209050601f8311600181146122375760008415612225578287015190505b61222f85826121b1565b865550612297565b601f1984166122458661202b565b60005b8281101561226d57848901518255600182019150602085019450602081019050612248565b8683101561228a5784890151612286601f891682612193565b8355505b6001600288020188555050505b505050505050565b7f5072696365206d7573742062652067726561746572207468616e203000000000600082015250565b60006122d5601c836116e2565b91506122e08261229f565b602082019050919050565b60006020820190508181036000830152612304816122c8565b9050919050565b600061231682611624565b91507fffffffffffffffffffffffffffffffffffffffffffffffffffffffffffffffff820361234857612347611fba565b5b600182019050919050565b600060608201905061236860008301866116c8565b61237560208301856116c8565b6123826040830184611687565b949350505050565b600060608201905061239f6000830186611687565b6123ac6020830185611687565b6123b96040830184611687565b949350505050565b60006123cc82611624565b91506123d783611624565b92508282019050808211156123ef576123ee611fba565b5b92915050565b6123fe81611767565b811461240957600080fd5b50565b60008151905061241b816123f5565b92915050565b6000602082840312156124375761243661161a565b5b60006124458482850161240c565b91505092915050565b7f5265656e7472616e637947756172643a207265656e7472616e742063616c6c00600082015250565b6000612484601f836116e2565b915061248f8261244e565b602082019050919050565b600060208201905081810360008301526124b381612477565b905091905056fe4920616d20636c61696d696e6720496e737572616e636520666f72206d7920636172596f757220636c61696d20666f7220496e737572616e636520697320617070726f76656420616e642073656e74a26469706673582212209f86e3e39296695af99345ea642b17fa5971b535381ccf2585d37fa48434b74164736f6c63430008120033",
  "linkReferences": {},
  "deployedLinkReferences": {}
}