{
  "_format": "hh-sol-artifact-1",
  "contractName": "NFT",
  "sourceName": "contracts/NFT.sol",
  "abi": [
    {
      "inputs": [],
      "stateMutability": "nonpayable",
      "type": "constructor"
    },
    {
      "anonymous": false,
      "inputs": [
        {
          "indexed": true,
          "internalType": "address",
          "name": "owner",
          "type": "address"
        },
        {
          "indexed": true,
          "internalType": "address",
          "name": "approved",
          "type": "address"
        },
        {
          "indexed": true,
          "internalType": "uint256",
          "name": "tokenId",
          "type": "uint256"
        }
      ],
      "name": "Approval",
      "type": "event"
    },
    {
      "anonymous": false,
      "inputs": [
        {
          "indexed": true,
          "internalType": "address",
          "name": "owner",
          "type": "address"
        },
        {
          "indexed": true,
          "internalType": "address",
          "name": "operator",
          "type": "address"
        },
        {
          "indexed": false,
          "internalType": "bool",
          "name": "approved",
          "type": "bool"
        }
      ],
      "name": "ApprovalForAll",
      "type": "event"
    },
    {
      "anonymous": false,
      "inputs": [
        {
          "indexed": false,
          "internalType": "uint256",
          "name": "_fromTokenId",
          "type": "uint256"
        },
        {
          "indexed": false,
          "internalType": "uint256",
          "name": "_toTokenId",
          "type": "uint256"
        }
      ],
      "name": "BatchMetadataUpdate",
      "type": "event"
    },
    {
      "anonymous": false,
      "inputs": [
        {
          "indexed": false,
          "internalType": "uint256",
          "name": "_tokenId",
          "type": "uint256"
        }
      ],
      "name": "MetadataUpdate",
      "type": "event"
    },
    {
      "anonymous": false,
      "inputs": [
        {
          "indexed": true,
          "internalType": "address",
          "name": "from",
          "type": "address"
        },
        {
          "indexed": true,
          "internalType": "address",
          "name": "to",
          "type": "address"
        },
        {
          "indexed": true,
          "internalType": "uint256",
          "name": "tokenId",
          "type": "uint256"
        }
      ],
      "name": "Transfer",
      "type": "event"
    },
    {
      "inputs": [
        {
          "internalType": "address",
          "name": "to",
          "type": "address"
        },
        {
          "internalType": "uint256",
          "name": "tokenId",
          "type": "uint256"
        }
      ],
      "name": "approve",
      "outputs": [],
      "stateMutability": "nonpayable",
      "type": "function"
    },
    {
      "inputs": [
        {
          "internalType": "address",
          "name": "owner",
          "type": "address"
        }
      ],
      "name": "balanceOf",
      "outputs": [
        {
          "internalType": "uint256",
          "name": "",
          "type": "uint256"
        }
      ],
      "stateMutability": "view",
      "type": "function"
    },
    {
      "inputs": [
        {
          "internalType": "uint256",
          "name": "tokenId",
          "type": "uint256"
        }
      ],
      "name": "getApproved",
      "outputs": [
        {
          "internalType": "address",
          "name": "",
          "type": "address"
        }
      ],
      "stateMutability": "view",
      "type": "function"
    },
    {
      "inputs": [
        {
          "internalType": "address",
          "name": "owner",
          "type": "address"
        },
        {
          "internalType": "address",
          "name": "operator",
          "type": "address"
        }
      ],
      "name": "isApprovedForAll",
      "outputs": [
        {
          "internalType": "bool",
          "name": "",
          "type": "bool"
        }
      ],
      "stateMutability": "view",
      "type": "function"
    },
    {
      "inputs": [
        {
          "internalType": "string",
          "name": "_tokenURI",
          "type": "string"
        },
        {
          "internalType": "uint256",
          "name": "price",
          "type": "uint256"
        }
      ],
      "name": "mint",
      "outputs": [
        {
          "internalType": "uint256",
          "name": "",
          "type": "uint256"
        }
      ],
      "stateMutability": "nonpayable",
      "type": "function"
    },
    {
      "inputs": [],
      "name": "name",
      "outputs": [
        {
          "internalType": "string",
          "name": "",
          "type": "string"
        }
      ],
      "stateMutability": "view",
      "type": "function"
    },
    {
      "inputs": [],
      "name": "owner",
      "outputs": [
        {
          "internalType": "address",
          "name": "",
          "type": "address"
        }
      ],
      "stateMutability": "view",
      "type": "function"
    },
    {
      "inputs": [
        {
          "internalType": "uint256",
          "name": "tokenId",
          "type": "uint256"
        }
      ],
      "name": "ownerOf",
      "outputs": [
        {
          "internalType": "address",
          "name": "",
          "type": "address"
        }
      ],
      "stateMutability": "view",
      "type": "function"
    },
    {
      "inputs": [
        {
          "internalType": "address",
          "name": "from",
          "type": "address"
        },
        {
          "internalType": "address",
          "name": "to",
          "type": "address"
        },
        {
          "internalType": "uint256",
          "name": "tokenId",
          "type": "uint256"
        }
      ],
      "name": "safeTransferFrom",
      "outputs": [],
      "stateMutability": "nonpayable",
      "type": "function"
    },
    {
      "inputs": [
        {
          "internalType": "address",
          "name": "from",
          "type": "address"
        },
        {
          "internalType": "address",
          "name": "to",
          "type": "address"
        },
        {
          "internalType": "uint256",
          "name": "tokenId",
          "type": "uint256"
        },
        {
          "internalType": "bytes",
          "name": "data",
          "type": "bytes"
        }
      ],
      "name": "safeTransferFrom",
      "outputs": [],
      "stateMutability": "nonpayable",
      "type": "function"
    },
    {
      "inputs": [
        {
          "internalType": "address",
          "name": "operator",
          "type": "address"
        },
        {
          "internalType": "bool",
          "name": "approved",
          "type": "bool"
        }
      ],
      "name": "setApprovalForAll",
      "outputs": [],
      "stateMutability": "nonpayable",
      "type": "function"
    },
    {
      "inputs": [
        {
          "internalType": "bytes4",
          "name": "interfaceId",
          "type": "bytes4"
        }
      ],
      "name": "supportsInterface",
      "outputs": [
        {
          "internalType": "bool",
          "name": "",
          "type": "bool"
        }
      ],
      "stateMutability": "view",
      "type": "function"
    },
    {
      "inputs": [],
      "name": "symbol",
      "outputs": [
        {
          "internalType": "string",
          "name": "",
          "type": "string"
        }
      ],
      "stateMutability": "view",
      "type": "function"
    },
    {
      "inputs": [],
      "name": "tokenCount",
      "outputs": [
        {
          "internalType": "uint256",
          "name": "",
          "type": "uint256"
        }
      ],
      "stateMutability": "view",
      "type": "function"
    },
    {
      "inputs": [
        {
          "internalType": "uint256",
          "name": "tokenId",
          "type": "uint256"
        }
      ],
      "name": "tokenURI",
      "outputs": [
        {
          "internalType": "string",
          "name": "",
          "type": "string"
        }
      ],
      "stateMutability": "view",
      "type": "function"
    },
    {
      "inputs": [
        {
          "internalType": "address",
          "name": "from",
          "type": "address"
        },
        {
          "internalType": "address",
          "name": "to",
          "type": "address"
        },
        {
          "internalType": "uint256",
          "name": "tokenId",
          "type": "uint256"
        }
      ],
      "name": "transferFrom",
      "outputs": [],
      "stateMutability": "nonpayable",
      "type": "function"
    },
    {
      "inputs": [],
      "name": "units",
      "outputs": [
        {
          "internalType": "uint256",
          "name": "",
          "type": "uint256"
        }
      ],
      "stateMutability": "view",
      "type": "function"
    }
  ],
  "bytecode": "0x6080604052670de0b6b3a76400006009553480156200001d57600080fd5b506040518060400160405280600d81526020017f494e535552414e4345204e4654000000000000000000000000000000000000008152506040518060400160405280600481526020017f494e46540000000000000000000000000000000000000000000000000000000081525081600090816200009b9190620003c6565b508060019081620000ad9190620003c6565b5050507337d4203fae62ccd7b1a78ef58a5515021ed8fd84600860006101000a81548173ffffffffffffffffffffffffffffffffffffffff021916908373ffffffffffffffffffffffffffffffffffffffff16021790555033600a60006101000a81548173ffffffffffffffffffffffffffffffffffffffff021916908373ffffffffffffffffffffffffffffffffffffffff160217905550620004ad565b600081519050919050565b7f4e487b7100000000000000000000000000000000000000000000000000000000600052604160045260246000fd5b7f4e487b7100000000000000000000000000000000000000000000000000000000600052602260045260246000fd5b60006002820490506001821680620001ce57607f821691505b602082108103620001e457620001e362000186565b5b50919050565b60008190508160005260206000209050919050565b60006020601f8301049050919050565b600082821b905092915050565b6000600883026200024e7fffffffffffffffffffffffffffffffffffffffffffffffffffffffffffffffff826200020f565b6200025a86836200020f565b95508019841693508086168417925050509392505050565b6000819050919050565b6000819050919050565b6000620002a7620002a16200029b8462000272565b6200027c565b62000272565b9050919050565b6000819050919050565b620002c38362000286565b620002db620002d282620002ae565b8484546200021c565b825550505050565b600090565b620002f2620002e3565b620002ff818484620002b8565b505050565b5b8181101562000327576200031b600082620002e8565b60018101905062000305565b5050565b601f82111562000376576200034081620001ea565b6200034b84620001ff565b810160208510156200035b578190505b620003736200036a85620001ff565b83018262000304565b50505b505050565b600082821c905092915050565b60006200039b600019846008026200037b565b1980831691505092915050565b6000620003b6838362000388565b9150826002028217905092915050565b620003d1826200014c565b67ffffffffffffffff811115620003ed57620003ec62000157565b5b620003f98254620001b5565b620004068282856200032b565b600060209050601f8311600181146200043e576000841562000429578287015190505b620004358582620003a8565b865550620004a5565b601f1984166200044e86620001ea565b60005b82811015620004785784890151825560018201915060208501945060208101905062000451565b8683101562000498578489015162000494601f89168262000388565b8355505b6001600288020188555050505b505050505050565b612dee80620004bd6000396000f3fe608060405234801561001057600080fd5b506004361061010b5760003560e01c806370a08231116100a25780639f181b5e116100715780639f181b5e146102cc578063a22cb465146102ea578063b88d4fde14610306578063c87b56dd14610322578063e985e9c5146103525761010b565b806370a08231146102425780638da5cb5b1461027257806395d89b4114610290578063976a8435146102ae5761010b565b8063095ea7b3116100de578063095ea7b3146101be57806323b872dd146101da57806342842e0e146101f65780636352211e146102125761010b565b806301ffc9a714610110578063056b01ce1461014057806306fdde0314610170578063081812fc1461018e575b600080fd5b61012a60048036038101906101259190611bab565b610382565b6040516101379190611bf3565b60405180910390f35b61015a60048036038101906101559190611d8a565b6103e3565b6040516101679190611df5565b60405180910390f35b6101786104f5565b6040516101859190611e8f565b60405180910390f35b6101a860048036038101906101a39190611eb1565b610587565b6040516101b59190611f1f565b60405180910390f35b6101d860048036038101906101d39190611f66565b6105cd565b005b6101f460048036038101906101ef9190611fa6565b6106e4565b005b610210600480360381019061020b9190611fa6565b610744565b005b61022c60048036038101906102279190611eb1565b610764565b6040516102399190611f1f565b60405180910390f35b61025c60048036038101906102579190611ff9565b6107ea565b6040516102699190611df5565b60405180910390f35b61027a6108a1565b6040516102879190611f1f565b60405180910390f35b6102986108c7565b6040516102a59190611e8f565b60405180910390f35b6102b6610959565b6040516102c39190611df5565b60405180910390f35b6102d461095f565b6040516102e19190611df5565b60405180910390f35b61030460048036038101906102ff9190612052565b610965565b005b610320600480360381019061031b9190612133565b61097b565b005b61033c60048036038101906103379190611eb1565b6109dd565b6040516103499190611e8f565b60405180910390f35b61036c600480360381019061036791906121b6565b610aef565b6040516103799190611bf3565b60405180910390f35b6000634906490660e01b7bffffffffffffffffffffffffffffffffffffffffffffffffffffffff1916827bffffffffffffffffffffffffffffffffffffffffffffffffffffffff191614806103dc57506103db82610b83565b5b9050919050565b600080600860009054906101000a900473ffffffffffffffffffffffffffffffffffffffff1673ffffffffffffffffffffffffffffffffffffffff166323b872dd33600a60009054906101000a900473ffffffffffffffffffffffffffffffffffffffff16600954876104569190612225565b6040518463ffffffff1660e01b815260040161047493929190612267565b6020604051808303816000875af1158015610493573d6000803e3d6000fd5b505050506040513d601f19601f820116820180604052508101906104b791906122b3565b9050600760008154809291906104cc906122e0565b91905055506104dd33600754610c65565b6104e960075485610c83565b60075491505092915050565b60606000805461050490612357565b80601f016020809104026020016040519081016040528092919081815260200182805461053090612357565b801561057d5780601f106105525761010080835404028352916020019161057d565b820191906000526020600020905b81548152906001019060200180831161056057829003601f168201915b5050505050905090565b600061059282610d27565b6004600083815260200190815260200160002060009054906101000a900473ffffffffffffffffffffffffffffffffffffffff169050919050565b60006105d882610764565b90508073ffffffffffffffffffffffffffffffffffffffff168373ffffffffffffffffffffffffffffffffffffffff1603610648576040517f08c379a000000000000000000000000000000000000000000000000000000000815260040161063f906123fa565b60405180910390fd5b8073ffffffffffffffffffffffffffffffffffffffff16610667610d72565b73ffffffffffffffffffffffffffffffffffffffff161480610696575061069581610690610d72565b610aef565b5b6106d5576040517f08c379a00000000000000000000000000000000000000000000000000000000081526004016106cc9061248c565b60405180910390fd5b6106df8383610d7a565b505050565b6106f56106ef610d72565b82610e33565b610734576040517f08c379a000000000000000000000000000000000000000000000000000000000815260040161072b9061251e565b60405180910390fd5b61073f838383610ec8565b505050565b61075f8383836040518060200160405280600081525061097b565b505050565b600080610770836111c1565b9050600073ffffffffffffffffffffffffffffffffffffffff168173ffffffffffffffffffffffffffffffffffffffff16036107e1576040517f08c379a00000000000000000000000000000000000000000000000000000000081526004016107d89061258a565b60405180910390fd5b80915050919050565b60008073ffffffffffffffffffffffffffffffffffffffff168273ffffffffffffffffffffffffffffffffffffffff160361085a576040517f08c379a00000000000000000000000000000000000000000000000000000000081526004016108519061261c565b60405180910390fd5b600360008373ffffffffffffffffffffffffffffffffffffffff1673ffffffffffffffffffffffffffffffffffffffff168152602001908152602001600020549050919050565b600a60009054906101000a900473ffffffffffffffffffffffffffffffffffffffff1681565b6060600180546108d690612357565b80601f016020809104026020016040519081016040528092919081815260200182805461090290612357565b801561094f5780601f106109245761010080835404028352916020019161094f565b820191906000526020600020905b81548152906001019060200180831161093257829003601f168201915b5050505050905090565b60095481565b60075481565b610977610970610d72565b83836111fe565b5050565b61098c610986610d72565b83610e33565b6109cb576040517f08c379a00000000000000000000000000000000000000000000000000000000081526004016109c29061251e565b60405180910390fd5b6109d78484848461136a565b50505050565b60606109e882610d27565b6000600660008481526020019081526020016000208054610a0890612357565b80601f0160208091040260200160405190810160405280929190818152602001828054610a3490612357565b8015610a815780601f10610a5657610100808354040283529160200191610a81565b820191906000526020600020905b815481529060010190602001808311610a6457829003601f168201915b505050505090506000610a926113c6565b90506000815103610aa7578192505050610aea565b600082511115610adc578082604051602001610ac4929190612678565b60405160208183030381529060405292505050610aea565b610ae5846113dd565b925050505b919050565b6000600560008473ffffffffffffffffffffffffffffffffffffffff1673ffffffffffffffffffffffffffffffffffffffff16815260200190815260200160002060008373ffffffffffffffffffffffffffffffffffffffff1673ffffffffffffffffffffffffffffffffffffffff16815260200190815260200160002060009054906101000a900460ff16905092915050565b60007f80ac58cd000000000000000000000000000000000000000000000000000000007bffffffffffffffffffffffffffffffffffffffffffffffffffffffff1916827bffffffffffffffffffffffffffffffffffffffffffffffffffffffff19161480610c4e57507f5b5e139f000000000000000000000000000000000000000000000000000000007bffffffffffffffffffffffffffffffffffffffffffffffffffffffff1916827bffffffffffffffffffffffffffffffffffffffffffffffffffffffff1916145b80610c5e5750610c5d82611445565b5b9050919050565b610c7f8282604051806020016040528060008152506114af565b5050565b610c8c8261150a565b610ccb576040517f08c379a0000000000000000000000000000000000000000000000000000000008152600401610cc29061270e565b60405180910390fd5b80600660008481526020019081526020016000209081610ceb91906128da565b507ff8e1a15aba9398e019f0b49df1a4fde98ee17ae345cb5f6b5e2c27f5033e8ce782604051610d1b9190611df5565b60405180910390a15050565b610d308161150a565b610d6f576040517f08c379a0000000000000000000000000000000000000000000000000000000008152600401610d669061258a565b60405180910390fd5b50565b600033905090565b816004600083815260200190815260200160002060006101000a81548173ffffffffffffffffffffffffffffffffffffffff021916908373ffffffffffffffffffffffffffffffffffffffff160217905550808273ffffffffffffffffffffffffffffffffffffffff16610ded83610764565b73ffffffffffffffffffffffffffffffffffffffff167f8c5be1e5ebec7d5bd14f71427d1e84f3dd0314c0f7b2291e5b200ac8c7c3b92560405160405180910390a45050565b600080610e3f83610764565b90508073ffffffffffffffffffffffffffffffffffffffff168473ffffffffffffffffffffffffffffffffffffffff161480610e815750610e808185610aef565b5b80610ebf57508373ffffffffffffffffffffffffffffffffffffffff16610ea784610587565b73ffffffffffffffffffffffffffffffffffffffff16145b91505092915050565b8273ffffffffffffffffffffffffffffffffffffffff16610ee882610764565b73ffffffffffffffffffffffffffffffffffffffff1614610f3e576040517f08c379a0000000000000000000000000000000000000000000000000000000008152600401610f3590612a1e565b60405180910390fd5b600073ffffffffffffffffffffffffffffffffffffffff168273ffffffffffffffffffffffffffffffffffffffff1603610fad576040517f08c379a0000000000000000000000000000000000000000000000000000000008152600401610fa490612ab0565b60405180910390fd5b610fba838383600161154b565b8273ffffffffffffffffffffffffffffffffffffffff16610fda82610764565b73ffffffffffffffffffffffffffffffffffffffff1614611030576040517f08c379a000000000000000000000000000000000000000000000000000000000815260040161102790612a1e565b60405180910390fd5b6004600082815260200190815260200160002060006101000a81549073ffffffffffffffffffffffffffffffffffffffff02191690556001600360008573ffffffffffffffffffffffffffffffffffffffff1673ffffffffffffffffffffffffffffffffffffffff168152602001908152602001600020600082825403925050819055506001600360008473ffffffffffffffffffffffffffffffffffffffff1673ffffffffffffffffffffffffffffffffffffffff16815260200190815260200160002060008282540192505081905550816002600083815260200190815260200160002060006101000a81548173ffffffffffffffffffffffffffffffffffffffff021916908373ffffffffffffffffffffffffffffffffffffffff160217905550808273ffffffffffffffffffffffffffffffffffffffff168473ffffffffffffffffffffffffffffffffffffffff167fddf252ad1be2c89b69c2b068fc378daa952ba7f163c4a11628f55a4df523b3ef60405160405180910390a46111bc8383836001611551565b505050565b60006002600083815260200190815260200160002060009054906101000a900473ffffffffffffffffffffffffffffffffffffffff169050919050565b8173ffffffffffffffffffffffffffffffffffffffff168373ffffffffffffffffffffffffffffffffffffffff160361126c576040517f08c379a000000000000000000000000000000000000000000000000000000000815260040161126390612b1c565b60405180910390fd5b80600560008573ffffffffffffffffffffffffffffffffffffffff1673ffffffffffffffffffffffffffffffffffffffff16815260200190815260200160002060008473ffffffffffffffffffffffffffffffffffffffff1673ffffffffffffffffffffffffffffffffffffffff16815260200190815260200160002060006101000a81548160ff0219169083151502179055508173ffffffffffffffffffffffffffffffffffffffff168373ffffffffffffffffffffffffffffffffffffffff167f17307eab39ab6107e8899845ad3d59bd9653f200f220920489ca2b5937696c318360405161135d9190611bf3565b60405180910390a3505050565b611375848484610ec8565b61138184848484611557565b6113c0576040517f08c379a00000000000000000000000000000000000000000000000000000000081526004016113b790612bae565b60405180910390fd5b50505050565b606060405180602001604052806000815250905090565b60606113e882610d27565b60006113f26113c6565b90506000815111611412576040518060200160405280600081525061143d565b8061141c846116de565b60405160200161142d929190612678565b6040516020818303038152906040525b915050919050565b60007f01ffc9a7000000000000000000000000000000000000000000000000000000007bffffffffffffffffffffffffffffffffffffffffffffffffffffffff1916827bffffffffffffffffffffffffffffffffffffffffffffffffffffffff1916149050919050565b6114b983836117ac565b6114c66000848484611557565b611505576040517f08c379a00000000000000000000000000000000000000000000000000000000081526004016114fc90612bae565b60405180910390fd5b505050565b60008073ffffffffffffffffffffffffffffffffffffffff1661152c836111c1565b73ffffffffffffffffffffffffffffffffffffffff1614159050919050565b50505050565b50505050565b60006115788473ffffffffffffffffffffffffffffffffffffffff166119c9565b156116d1578373ffffffffffffffffffffffffffffffffffffffff1663150b7a026115a1610d72565b8786866040518563ffffffff1660e01b81526004016115c39493929190612c23565b6020604051808303816000875af19250505080156115ff57506040513d601f19601f820116820180604052508101906115fc9190612c84565b60015b611681573d806000811461162f576040519150601f19603f3d011682016040523d82523d6000602084013e611634565b606091505b506000815103611679576040517f08c379a000000000000000000000000000000000000000000000000000000000815260040161167090612bae565b60405180910390fd5b805181602001fd5b63150b7a0260e01b7bffffffffffffffffffffffffffffffffffffffffffffffffffffffff1916817bffffffffffffffffffffffffffffffffffffffffffffffffffffffff1916149150506116d6565b600190505b949350505050565b6060600060016116ed846119ec565b01905060008167ffffffffffffffff81111561170c5761170b611c29565b5b6040519080825280601f01601f19166020018201604052801561173e5781602001600182028036833780820191505090505b509050600082602001820190505b6001156117a1578080600190039150507f3031323334353637383961626364656600000000000000000000000000000000600a86061a8153600a858161179557611794612cb1565b5b0494506000850361174c575b819350505050919050565b600073ffffffffffffffffffffffffffffffffffffffff168273ffffffffffffffffffffffffffffffffffffffff160361181b576040517f08c379a000000000000000000000000000000000000000000000000000000000815260040161181290612d2c565b60405180910390fd5b6118248161150a565b15611864576040517f08c379a000000000000000000000000000000000000000000000000000000000815260040161185b90612d98565b60405180910390fd5b61187260008383600161154b565b61187b8161150a565b156118bb576040517f08c379a00000000000000000000000000000000000000000000000000000000081526004016118b290612d98565b60405180910390fd5b6001600360008473ffffffffffffffffffffffffffffffffffffffff1673ffffffffffffffffffffffffffffffffffffffff16815260200190815260200160002060008282540192505081905550816002600083815260200190815260200160002060006101000a81548173ffffffffffffffffffffffffffffffffffffffff021916908373ffffffffffffffffffffffffffffffffffffffff160217905550808273ffffffffffffffffffffffffffffffffffffffff16600073ffffffffffffffffffffffffffffffffffffffff167fddf252ad1be2c89b69c2b068fc378daa952ba7f163c4a11628f55a4df523b3ef60405160405180910390a46119c5600083836001611551565b5050565b6000808273ffffffffffffffffffffffffffffffffffffffff163b119050919050565b600080600090507a184f03e93ff9f4daa797ed6e38ed64bf6a1f0100000000000000008310611a4a577a184f03e93ff9f4daa797ed6e38ed64bf6a1f0100000000000000008381611a4057611a3f612cb1565b5b0492506040810190505b6d04ee2d6d415b85acef81000000008310611a87576d04ee2d6d415b85acef81000000008381611a7d57611a7c612cb1565b5b0492506020810190505b662386f26fc100008310611ab657662386f26fc100008381611aac57611aab612cb1565b5b0492506010810190505b6305f5e1008310611adf576305f5e1008381611ad557611ad4612cb1565b5b0492506008810190505b6127108310611b04576127108381611afa57611af9612cb1565b5b0492506004810190505b60648310611b275760648381611b1d57611b1c612cb1565b5b0492506002810190505b600a8310611b36576001810190505b80915050919050565b6000604051905090565b600080fd5b600080fd5b60007fffffffff0000000000000000000000000000000000000000000000000000000082169050919050565b611b8881611b53565b8114611b9357600080fd5b50565b600081359050611ba581611b7f565b92915050565b600060208284031215611bc157611bc0611b49565b5b6000611bcf84828501611b96565b91505092915050565b60008115159050919050565b611bed81611bd8565b82525050565b6000602082019050611c086000830184611be4565b92915050565b600080fd5b600080fd5b6000601f19601f8301169050919050565b7f4e487b7100000000000000000000000000000000000000000000000000000000600052604160045260246000fd5b611c6182611c18565b810181811067ffffffffffffffff82111715611c8057611c7f611c29565b5b80604052505050565b6000611c93611b3f565b9050611c9f8282611c58565b919050565b600067ffffffffffffffff821115611cbf57611cbe611c29565b5b611cc882611c18565b9050602081019050919050565b82818337600083830152505050565b6000611cf7611cf284611ca4565b611c89565b905082815260208101848484011115611d1357611d12611c13565b5b611d1e848285611cd5565b509392505050565b600082601f830112611d3b57611d3a611c0e565b5b8135611d4b848260208601611ce4565b91505092915050565b6000819050919050565b611d6781611d54565b8114611d7257600080fd5b50565b600081359050611d8481611d5e565b92915050565b60008060408385031215611da157611da0611b49565b5b600083013567ffffffffffffffff811115611dbf57611dbe611b4e565b5b611dcb85828601611d26565b9250506020611ddc85828601611d75565b9150509250929050565b611def81611d54565b82525050565b6000602082019050611e0a6000830184611de6565b92915050565b600081519050919050565b600082825260208201905092915050565b60005b83811015611e4a578082015181840152602081019050611e2f565b60008484015250505050565b6000611e6182611e10565b611e6b8185611e1b565b9350611e7b818560208601611e2c565b611e8481611c18565b840191505092915050565b60006020820190508181036000830152611ea98184611e56565b905092915050565b600060208284031215611ec757611ec6611b49565b5b6000611ed584828501611d75565b91505092915050565b600073ffffffffffffffffffffffffffffffffffffffff82169050919050565b6000611f0982611ede565b9050919050565b611f1981611efe565b82525050565b6000602082019050611f346000830184611f10565b92915050565b611f4381611efe565b8114611f4e57600080fd5b50565b600081359050611f6081611f3a565b92915050565b60008060408385031215611f7d57611f7c611b49565b5b6000611f8b85828601611f51565b9250506020611f9c85828601611d75565b9150509250929050565b600080600060608486031215611fbf57611fbe611b49565b5b6000611fcd86828701611f51565b9350506020611fde86828701611f51565b9250506040611fef86828701611d75565b9150509250925092565b60006020828403121561200f5761200e611b49565b5b600061201d84828501611f51565b91505092915050565b61202f81611bd8565b811461203a57600080fd5b50565b60008135905061204c81612026565b92915050565b6000806040838503121561206957612068611b49565b5b600061207785828601611f51565b92505060206120888582860161203d565b9150509250929050565b600067ffffffffffffffff8211156120ad576120ac611c29565b5b6120b682611c18565b9050602081019050919050565b60006120d66120d184612092565b611c89565b9050828152602081018484840111156120f2576120f1611c13565b5b6120fd848285611cd5565b509392505050565b600082601f83011261211a57612119611c0e565b5b813561212a8482602086016120c3565b91505092915050565b6000806000806080858703121561214d5761214c611b49565b5b600061215b87828801611f51565b945050602061216c87828801611f51565b935050604061217d87828801611d75565b925050606085013567ffffffffffffffff81111561219e5761219d611b4e565b5b6121aa87828801612105565b91505092959194509250565b600080604083850312156121cd576121cc611b49565b5b60006121db85828601611f51565b92505060206121ec85828601611f51565b9150509250929050565b7f4e487b7100000000000000000000000000000000000000000000000000000000600052601160045260246000fd5b600061223082611d54565b915061223b83611d54565b925082820261224981611d54565b915082820484148315176122605761225f6121f6565b5b5092915050565b600060608201905061227c6000830186611f10565b6122896020830185611f10565b6122966040830184611de6565b949350505050565b6000815190506122ad81612026565b92915050565b6000602082840312156122c9576122c8611b49565b5b60006122d78482850161229e565b91505092915050565b60006122eb82611d54565b91507fffffffffffffffffffffffffffffffffffffffffffffffffffffffffffffffff820361231d5761231c6121f6565b5b600182019050919050565b7f4e487b7100000000000000000000000000000000000000000000000000000000600052602260045260246000fd5b6000600282049050600182168061236f57607f821691505b60208210810361238257612381612328565b5b50919050565b7f4552433732313a20617070726f76616c20746f2063757272656e74206f776e6560008201527f7200000000000000000000000000000000000000000000000000000000000000602082015250565b60006123e4602183611e1b565b91506123ef82612388565b604082019050919050565b60006020820190508181036000830152612413816123d7565b9050919050565b7f4552433732313a20617070726f76652063616c6c6572206973206e6f7420746f60008201527f6b656e206f776e6572206f7220617070726f76656420666f7220616c6c000000602082015250565b6000612476603d83611e1b565b91506124818261241a565b604082019050919050565b600060208201905081810360008301526124a581612469565b9050919050565b7f4552433732313a2063616c6c6572206973206e6f7420746f6b656e206f776e6560008201527f72206f7220617070726f76656400000000000000000000000000000000000000602082015250565b6000612508602d83611e1b565b9150612513826124ac565b604082019050919050565b60006020820190508181036000830152612537816124fb565b9050919050565b7f4552433732313a20696e76616c696420746f6b656e2049440000000000000000600082015250565b6000612574601883611e1b565b915061257f8261253e565b602082019050919050565b600060208201905081810360008301526125a381612567565b9050919050565b7f4552433732313a2061646472657373207a65726f206973206e6f74206120766160008201527f6c6964206f776e65720000000000000000000000000000000000000000000000602082015250565b6000612606602983611e1b565b9150612611826125aa565b604082019050919050565b60006020820190508181036000830152612635816125f9565b9050919050565b600081905092915050565b600061265282611e10565b61265c818561263c565b935061266c818560208601611e2c565b80840191505092915050565b60006126848285612647565b91506126908284612647565b91508190509392505050565b7f45524337323155524953746f726167653a2055524920736574206f66206e6f6e60008201527f6578697374656e7420746f6b656e000000000000000000000000000000000000602082015250565b60006126f8602e83611e1b565b91506127038261269c565b604082019050919050565b60006020820190508181036000830152612727816126eb565b9050919050565b60008190508160005260206000209050919050565b60006020601f8301049050919050565b600082821b905092915050565b6000600883026127907fffffffffffffffffffffffffffffffffffffffffffffffffffffffffffffffff82612753565b61279a8683612753565b95508019841693508086168417925050509392505050565b6000819050919050565b60006127d76127d26127cd84611d54565b6127b2565b611d54565b9050919050565b6000819050919050565b6127f1836127bc565b6128056127fd826127de565b848454612760565b825550505050565b600090565b61281a61280d565b6128258184846127e8565b505050565b5b818110156128495761283e600082612812565b60018101905061282b565b5050565b601f82111561288e5761285f8161272e565b61286884612743565b81016020851015612877578190505b61288b61288385612743565b83018261282a565b50505b505050565b600082821c905092915050565b60006128b160001984600802612893565b1980831691505092915050565b60006128ca83836128a0565b9150826002028217905092915050565b6128e382611e10565b67ffffffffffffffff8111156128fc576128fb611c29565b5b6129068254612357565b61291182828561284d565b600060209050601f8311600181146129445760008415612932578287015190505b61293c85826128be565b8655506129a4565b601f1984166129528661272e565b60005b8281101561297a57848901518255600182019150602085019450602081019050612955565b868310156129975784890151612993601f8916826128a0565b8355505b6001600288020188555050505b505050505050565b7f4552433732313a207472616e736665722066726f6d20696e636f72726563742060008201527f6f776e6572000000000000000000000000000000000000000000000000000000602082015250565b6000612a08602583611e1b565b9150612a13826129ac565b604082019050919050565b60006020820190508181036000830152612a37816129fb565b9050919050565b7f4552433732313a207472616e7366657220746f20746865207a65726f2061646460008201527f7265737300000000000000000000000000000000000000000000000000000000602082015250565b6000612a9a602483611e1b565b9150612aa582612a3e565b604082019050919050565b60006020820190508181036000830152612ac981612a8d565b9050919050565b7f4552433732313a20617070726f766520746f2063616c6c657200000000000000600082015250565b6000612b06601983611e1b565b9150612b1182612ad0565b602082019050919050565b60006020820190508181036000830152612b3581612af9565b9050919050565b7f4552433732313a207472616e7366657220746f206e6f6e20455243373231526560008201527f63656976657220696d706c656d656e7465720000000000000000000000000000602082015250565b6000612b98603283611e1b565b9150612ba382612b3c565b604082019050919050565b60006020820190508181036000830152612bc781612b8b565b9050919050565b600081519050919050565b600082825260208201905092915050565b6000612bf582612bce565b612bff8185612bd9565b9350612c0f818560208601611e2c565b612c1881611c18565b840191505092915050565b6000608082019050612c386000830187611f10565b612c456020830186611f10565b612c526040830185611de6565b8181036060830152612c648184612bea565b905095945050505050565b600081519050612c7e81611b7f565b92915050565b600060208284031215612c9a57612c99611b49565b5b6000612ca884828501612c6f565b91505092915050565b7f4e487b7100000000000000000000000000000000000000000000000000000000600052601260045260246000fd5b7f4552433732313a206d696e7420746f20746865207a65726f2061646472657373600082015250565b6000612d16602083611e1b565b9150612d2182612ce0565b602082019050919050565b60006020820190508181036000830152612d4581612d09565b9050919050565b7f4552433732313a20746f6b656e20616c7265616479206d696e74656400000000600082015250565b6000612d82601c83611e1b565b9150612d8d82612d4c565b602082019050919050565b60006020820190508181036000830152612db181612d75565b905091905056fea2646970667358221220a0bebf7d43715c9c8988795fa7775d3d2439ffa7e3956c52bdcdbd14274bbb6d64736f6c63430008120033",
  "linkReferences": {},
  "deployedLinkReferences": {}
}