{
  "_format": "hh-sol-artifact-1",
  "contractName": "TruflationTester",
  "sourceName": "contracts/truflation.sol",
  "abi": [
    {
      "inputs": [
        {
          "internalType": "address",
          "name": "oracleId_",
          "type": "address"
        },
        {
          "internalType": "string",
          "name": "jobId_",
          "type": "string"
        },
        {
          "internalType": "uint256",
          "name": "fee_",
          "type": "uint256"
        },
        {
          "internalType": "address",
          "name": "token_",
          "type": "address"
        }
      ],
      "stateMutability": "nonpayable",
      "type": "constructor"
    },
    {
      "anonymous": false,
      "inputs": [
        {
          "indexed": true,
          "internalType": "bytes32",
          "name": "id",
          "type": "bytes32"
        }
      ],
      "name": "ChainlinkCancelled",
      "type": "event"
    },
    {
      "anonymous": false,
      "inputs": [
        {
          "indexed": true,
          "internalType": "bytes32",
          "name": "id",
          "type": "bytes32"
        }
      ],
      "name": "ChainlinkFulfilled",
      "type": "event"
    },
    {
      "anonymous": false,
      "inputs": [
        {
          "indexed": true,
          "internalType": "bytes32",
          "name": "id",
          "type": "bytes32"
        }
      ],
      "name": "ChainlinkRequested",
      "type": "event"
    },
    {
      "anonymous": false,
      "inputs": [
        {
          "indexed": true,
          "internalType": "address",
          "name": "from",
          "type": "address"
        },
        {
          "indexed": true,
          "internalType": "address",
          "name": "to",
          "type": "address"
        }
      ],
      "name": "OwnershipTransferRequested",
      "type": "event"
    },
    {
      "anonymous": false,
      "inputs": [
        {
          "indexed": true,
          "internalType": "address",
          "name": "from",
          "type": "address"
        },
        {
          "indexed": true,
          "internalType": "address",
          "name": "to",
          "type": "address"
        }
      ],
      "name": "OwnershipTransferred",
      "type": "event"
    },
    {
      "inputs": [],
      "name": "acceptOwnership",
      "outputs": [],
      "stateMutability": "nonpayable",
      "type": "function"
    },
    {
      "inputs": [
        {
          "internalType": "uint256",
          "name": "_fee",
          "type": "uint256"
        }
      ],
      "name": "changeFee",
      "outputs": [],
      "stateMutability": "nonpayable",
      "type": "function"
    },
    {
      "inputs": [
        {
          "internalType": "string",
          "name": "_jobId",
          "type": "string"
        }
      ],
      "name": "changeJobId",
      "outputs": [],
      "stateMutability": "nonpayable",
      "type": "function"
    },
    {
      "inputs": [
        {
          "internalType": "address",
          "name": "_oracle",
          "type": "address"
        }
      ],
      "name": "changeOracle",
      "outputs": [],
      "stateMutability": "nonpayable",
      "type": "function"
    },
    {
      "inputs": [],
      "name": "fee",
      "outputs": [
        {
          "internalType": "uint256",
          "name": "",
          "type": "uint256"
        }
      ],
      "stateMutability": "view",
      "type": "function"
    },
    {
      "inputs": [
        {
          "internalType": "bytes32",
          "name": "_requestId",
          "type": "bytes32"
        },
        {
          "internalType": "bytes",
          "name": "_inflation",
          "type": "bytes"
        }
      ],
      "name": "fulfillInflationWei",
      "outputs": [],
      "stateMutability": "nonpayable",
      "type": "function"
    },
    {
      "inputs": [
        {
          "internalType": "bytes32",
          "name": "_requestId",
          "type": "bytes32"
        },
        {
          "internalType": "bytes",
          "name": "_inflation",
          "type": "bytes"
        }
      ],
      "name": "fulfillYoyInflation",
      "outputs": [],
      "stateMutability": "nonpayable",
      "type": "function"
    },
    {
      "inputs": [],
      "name": "getChainlinkToken",
      "outputs": [
        {
          "internalType": "address",
          "name": "",
          "type": "address"
        }
      ],
      "stateMutability": "view",
      "type": "function"
    },
    {
      "inputs": [],
      "name": "inflationWei",
      "outputs": [
        {
          "internalType": "int256",
          "name": "",
          "type": "int256"
        }
      ],
      "stateMutability": "view",
      "type": "function"
    },
    {
      "inputs": [],
      "name": "jobId",
      "outputs": [
        {
          "internalType": "string",
          "name": "",
          "type": "string"
        }
      ],
      "stateMutability": "view",
      "type": "function"
    },
    {
      "inputs": [],
      "name": "oracleId",
      "outputs": [
        {
          "internalType": "address",
          "name": "",
          "type": "address"
        }
      ],
      "stateMutability": "view",
      "type": "function"
    },
    {
      "inputs": [],
      "name": "owner",
      "outputs": [
        {
          "internalType": "address",
          "name": "",
          "type": "address"
        }
      ],
      "stateMutability": "view",
      "type": "function"
    },
    {
      "inputs": [],
      "name": "requestInflationWei",
      "outputs": [
        {
          "internalType": "bytes32",
          "name": "requestId",
          "type": "bytes32"
        }
      ],
      "stateMutability": "nonpayable",
      "type": "function"
    },
    {
      "inputs": [],
      "name": "requestYoyInflation",
      "outputs": [
        {
          "internalType": "bytes32",
          "name": "requestId",
          "type": "bytes32"
        }
      ],
      "stateMutability": "nonpayable",
      "type": "function"
    },
    {
      "inputs": [
        {
          "internalType": "address",
          "name": "to",
          "type": "address"
        }
      ],
      "name": "transferOwnership",
      "outputs": [],
      "stateMutability": "nonpayable",
      "type": "function"
    },
    {
      "inputs": [],
      "name": "withdrawLink",
      "outputs": [],
      "stateMutability": "nonpayable",
      "type": "function"
    },
    {
      "inputs": [],
      "name": "yoyInflation",
      "outputs": [
        {
          "internalType": "string",
          "name": "",
          "type": "string"
        }
      ],
      "stateMutability": "view",
      "type": "function"
    }
  ],
  "bytecode": "0x608060405260016004553480156200001657600080fd5b50604051620038283803806200382883398181016040528101906200003c919062000559565b338060008073ffffffffffffffffffffffffffffffffffffffff168273ffffffffffffffffffffffffffffffffffffffff1603620000b1576040517f08c379a0000000000000000000000000000000000000000000000000000000008152600401620000a8906200064b565b60405180910390fd5b81600660006101000a81548173ffffffffffffffffffffffffffffffffffffffff021916908373ffffffffffffffffffffffffffffffffffffffff160217905550600073ffffffffffffffffffffffffffffffffffffffff168173ffffffffffffffffffffffffffffffffffffffff161462000139576200013881620001b160201b60201c565b5b5050506200014d81620002e260201b60201c565b83600960006101000a81548173ffffffffffffffffffffffffffffffffffffffff021916908373ffffffffffffffffffffffffffffffffffffffff16021790555082600a90816200019f9190620008ae565b5081600b819055505050505062000a07565b3373ffffffffffffffffffffffffffffffffffffffff168173ffffffffffffffffffffffffffffffffffffffff160362000222576040517f08c379a00000000000000000000000000000000000000000000000000000000081526004016200021990620009e5565b60405180910390fd5b80600760006101000a81548173ffffffffffffffffffffffffffffffffffffffff021916908373ffffffffffffffffffffffffffffffffffffffff1602179055508073ffffffffffffffffffffffffffffffffffffffff16600660009054906101000a900473ffffffffffffffffffffffffffffffffffffffff1673ffffffffffffffffffffffffffffffffffffffff167fed8889f560326eb138920d842192f0eb3dd22b4f139c87a2c57538e05bae127860405160405180910390a350565b80600260006101000a81548173ffffffffffffffffffffffffffffffffffffffff021916908373ffffffffffffffffffffffffffffffffffffffff16021790555050565b6000604051905090565b600080fd5b600080fd5b600073ffffffffffffffffffffffffffffffffffffffff82169050919050565b600062000367826200033a565b9050919050565b62000379816200035a565b81146200038557600080fd5b50565b60008151905062000399816200036e565b92915050565b600080fd5b600080fd5b6000601f19601f8301169050919050565b7f4e487b7100000000000000000000000000000000000000000000000000000000600052604160045260246000fd5b620003f482620003a9565b810181811067ffffffffffffffff82111715620004165762000415620003ba565b5b80604052505050565b60006200042b62000326565b9050620004398282620003e9565b919050565b600067ffffffffffffffff8211156200045c576200045b620003ba565b5b6200046782620003a9565b9050602081019050919050565b60005b838110156200049457808201518184015260208101905062000477565b60008484015250505050565b6000620004b7620004b1846200043e565b6200041f565b905082815260208101848484011115620004d657620004d5620003a4565b5b620004e384828562000474565b509392505050565b600082601f8301126200050357620005026200039f565b5b815162000515848260208601620004a0565b91505092915050565b6000819050919050565b62000533816200051e565b81146200053f57600080fd5b50565b600081519050620005538162000528565b92915050565b6000806000806080858703121562000576576200057562000330565b5b6000620005868782880162000388565b945050602085015167ffffffffffffffff811115620005aa57620005a962000335565b5b620005b887828801620004eb565b9350506040620005cb8782880162000542565b9250506060620005de8782880162000388565b91505092959194509250565b600082825260208201905092915050565b7f43616e6e6f7420736574206f776e657220746f207a65726f0000000000000000600082015250565b600062000633601883620005ea565b91506200064082620005fb565b602082019050919050565b60006020820190508181036000830152620006668162000624565b9050919050565b600081519050919050565b7f4e487b7100000000000000000000000000000000000000000000000000000000600052602260045260246000fd5b60006002820490506001821680620006c057607f821691505b602082108103620006d657620006d562000678565b5b50919050565b60008190508160005260206000209050919050565b60006020601f8301049050919050565b600082821b905092915050565b600060088302620007407fffffffffffffffffffffffffffffffffffffffffffffffffffffffffffffffff8262000701565b6200074c868362000701565b95508019841693508086168417925050509392505050565b6000819050919050565b60006200078f6200078962000783846200051e565b62000764565b6200051e565b9050919050565b6000819050919050565b620007ab836200076e565b620007c3620007ba8262000796565b8484546200070e565b825550505050565b600090565b620007da620007cb565b620007e7818484620007a0565b505050565b5b818110156200080f5762000803600082620007d0565b600181019050620007ed565b5050565b601f8211156200085e576200082881620006dc565b6200083384620006f1565b8101602085101562000843578190505b6200085b6200085285620006f1565b830182620007ec565b50505b505050565b600082821c905092915050565b6000620008836000198460080262000863565b1980831691505092915050565b60006200089e838362000870565b9150826002028217905092915050565b620008b9826200066d565b67ffffffffffffffff811115620008d557620008d4620003ba565b5b620008e18254620006a7565b620008ee82828562000813565b600060209050601f83116001811462000926576000841562000911578287015190505b6200091d858262000890565b8655506200098d565b601f1984166200093686620006dc565b60005b82811015620009605784890151825560018201915060208501945060208101905062000939565b868310156200098057848901516200097c601f89168262000870565b8355505b6001600288020188555050505b505050505050565b7f43616e6e6f74207472616e7366657220746f2073656c66000000000000000000600082015250565b6000620009cd601783620005ea565b9150620009da8262000995565b602082019050919050565b6000602082019050818103600083015262000a0081620009be565b9050919050565b612e118062000a176000396000f3fe608060405234801561001057600080fd5b506004361061010b5760003560e01c80638da5cb5b116100a2578063bb694f1611610071578063bb694f1614610248578063c2939d9714610264578063ddca3f4314610282578063e109f6d0146102a0578063f2fde38b146102be5761010b565b80638da5cb5b146101e65780638dc654a2146102045780639063e2161461020e578063af5d945b1461022a5761010b565b80636a1db1bf116100de5780636a1db1bf1461018457806372582c8d146101a057806379ba5097146101be5780638abd3057146101c85761010b565b8063164366e014610110578063165d35e11461012c5780632121778d1461014a57806347c421b514610168575b600080fd5b61012a60048036038101906101259190611d49565b6102da565b005b6101346103f3565b6040516101419190611de6565b60405180910390f35b610152610402565b60405161015f9190611de6565b60405180910390f35b610182600480360381019061017d9190611e2d565b610428565b005b61019e60048036038101906101999190611e90565b610474565b005b6101a8610486565b6040516101b59190611ecc565b60405180910390f35b6101c66106c3565b005b6101d061085a565b6040516101dd9190611ecc565b60405180910390f35b6101ee610b16565b6040516101fb9190611de6565b60405180910390f35b61020c610b40565b005b61022860048036038101906102239190611f88565b610c8d565b005b610232610ca8565b60405161023f9190612050565b60405180910390f35b610262600480360381019061025d9190611d49565b610d36565b005b61026c610e50565b6040516102799190612050565b60405180910390f35b61028a610ede565b6040516102979190612081565b60405180910390f35b6102a8610ee4565b6040516102b591906120b5565b60405180910390f35b6102d860048036038101906102d39190611e2d565b610eea565b005b816005600082815260200190815260200160002060009054906101000a900473ffffffffffffffffffffffffffffffffffffffff1673ffffffffffffffffffffffffffffffffffffffff163373ffffffffffffffffffffffffffffffffffffffff161461037c576040517f08c379a000000000000000000000000000000000000000000000000000000000815260040161037390612142565b60405180910390fd5b6005600082815260200190815260200160002060006101000a81549073ffffffffffffffffffffffffffffffffffffffff0219169055807f7cc135e0cebb02c3480ae5d74d377283180a2601f8f644edf7987b009316c63a60405160405180910390a26103e882610efe565b600c81905550505050565b60006103fd610f0c565b905090565b600960009054906101000a900473ffffffffffffffffffffffffffffffffffffffff1681565b610430610f36565b80600960006101000a81548173ffffffffffffffffffffffffffffffffffffffff021916908373ffffffffffffffffffffffffffffffffffffffff16021790555050565b61047c610f36565b80600b8190555050565b6000806104a5600a6104979061223e565b3063bb694f1660e01b610fc8565b90506105266040518060400160405280600781526020017f73657276696365000000000000000000000000000000000000000000000000008152506040518060400160405280601281526020017f747275666c6174696f6e2f63757272656e74000000000000000000000000000081525083610ff99092919063ffffffff16565b6105a56040518060400160405280600781526020017f6b657970617468000000000000000000000000000000000000000000000000008152506040518060400160405280601581526020017f796561724f76657259656172496e666c6174696f6e000000000000000000000081525083610ff99092919063ffffffff16565b6106246040518060400160405280600381526020017f61626900000000000000000000000000000000000000000000000000000000008152506040518060400160405280600481526020017f6a736f6e0000000000000000000000000000000000000000000000000000000081525083610ff99092919063ffffffff16565b61068e6040518060400160405280600881526020017f726566756e64546f00000000000000000000000000000000000000000000000081525061067e3373ffffffffffffffffffffffffffffffffffffffff16601461102c565b83610ff99092919063ffffffff16565b6106bd600960009054906101000a900473ffffffffffffffffffffffffffffffffffffffff1682600b54611268565b91505090565b600760009054906101000a900473ffffffffffffffffffffffffffffffffffffffff1673ffffffffffffffffffffffffffffffffffffffff163373ffffffffffffffffffffffffffffffffffffffff1614610753576040517f08c379a000000000000000000000000000000000000000000000000000000000815260040161074a906122fb565b60405180910390fd5b6000600660009054906101000a900473ffffffffffffffffffffffffffffffffffffffff16905033600660006101000a81548173ffffffffffffffffffffffffffffffffffffffff021916908373ffffffffffffffffffffffffffffffffffffffff1602179055506000600760006101000a81548173ffffffffffffffffffffffffffffffffffffffff021916908373ffffffffffffffffffffffffffffffffffffffff1602179055503373ffffffffffffffffffffffffffffffffffffffff168173ffffffffffffffffffffffffffffffffffffffff167f8be0079c531659141344cd1fd0a4f28419497f9722a3daafe3b4186f6b6457e060405160405180910390a350565b600080610879600a61086b9061223e565b3063164366e060e01b610fc8565b90506108fa6040518060400160405280600781526020017f73657276696365000000000000000000000000000000000000000000000000008152506040518060400160405280601281526020017f747275666c6174696f6e2f63757272656e74000000000000000000000000000081525083610ff99092919063ffffffff16565b6109796040518060400160405280600781526020017f6b657970617468000000000000000000000000000000000000000000000000008152506040518060400160405280601581526020017f796561724f76657259656172496e666c6174696f6e000000000000000000000081525083610ff99092919063ffffffff16565b6109f86040518060400160405280600381526020017f61626900000000000000000000000000000000000000000000000000000000008152506040518060400160405280600681526020017f696e74323536000000000000000000000000000000000000000000000000000081525083610ff99092919063ffffffff16565b610a776040518060400160405280600a81526020017f6d756c7469706c696572000000000000000000000000000000000000000000008152506040518060400160405280601381526020017f313030303030303030303030303030303030300000000000000000000000000081525083610ff99092919063ffffffff16565b610ae16040518060400160405280600881526020017f726566756e64546f000000000000000000000000000000000000000000000000815250610ad13373ffffffffffffffffffffffffffffffffffffffff16601461102c565b83610ff99092919063ffffffff16565b610b10600960009054906101000a900473ffffffffffffffffffffffffffffffffffffffff1682600b54611268565b91505090565b6000600660009054906101000a900473ffffffffffffffffffffffffffffffffffffffff16905090565b610b48610f36565b6000610b52610f0c565b90508073ffffffffffffffffffffffffffffffffffffffff1663a9059cbb338373ffffffffffffffffffffffffffffffffffffffff166370a08231306040518263ffffffff1660e01b8152600401610baa9190611de6565b602060405180830381865afa158015610bc7573d6000803e3d6000fd5b505050506040513d601f19601f82011682018060405250810190610beb9190612330565b6040518363ffffffff1660e01b8152600401610c0892919061235d565b6020604051808303816000875af1158015610c27573d6000803e3d6000fd5b505050506040513d601f19601f82011682018060405250810190610c4b91906123be565b610c8a576040517f08c379a0000000000000000000000000000000000000000000000000000000008152600401610c8190612437565b60405180910390fd5b50565b610c95610f36565b80600a9081610ca491906125f6565b5050565b60088054610cb590612191565b80601f0160208091040260200160405190810160405280929190818152602001828054610ce190612191565b8015610d2e5780601f10610d0357610100808354040283529160200191610d2e565b820191906000526020600020905b815481529060010190602001808311610d1157829003601f168201915b505050505081565b816005600082815260200190815260200160002060009054906101000a900473ffffffffffffffffffffffffffffffffffffffff1673ffffffffffffffffffffffffffffffffffffffff163373ffffffffffffffffffffffffffffffffffffffff1614610dd8576040517f08c379a0000000000000000000000000000000000000000000000000000000008152600401610dcf90612142565b60405180910390fd5b6005600082815260200190815260200160002060006101000a81549073ffffffffffffffffffffffffffffffffffffffff0219169055807f7cc135e0cebb02c3480ae5d74d377283180a2601f8f644edf7987b009316c63a60405160405180910390a28160089081610e4a91906125f6565b50505050565b600a8054610e5d90612191565b80601f0160208091040260200160405190810160405280929190818152602001828054610e8990612191565b8015610ed65780601f10610eab57610100808354040283529160200191610ed6565b820191906000526020600020905b815481529060010190602001808311610eb957829003601f168201915b505050505081565b600b5481565b600c5481565b610ef2610f36565b610efb81611334565b50565b600060208201519050919050565b6000600260009054906101000a900473ffffffffffffffffffffffffffffffffffffffff16905090565b600660009054906101000a900473ffffffffffffffffffffffffffffffffffffffff1673ffffffffffffffffffffffffffffffffffffffff163373ffffffffffffffffffffffffffffffffffffffff1614610fc6576040517f08c379a0000000000000000000000000000000000000000000000000000000008152600401610fbd90612714565b60405180910390fd5b565b610fd0611b32565b610fd8611b32565b610fef85858584611462909392919063ffffffff16565b9150509392505050565b61101082846080015161151290919063ffffffff16565b61102781846080015161151290919063ffffffff16565b505050565b60606000600283600261103f9190612763565b61104991906127a5565b67ffffffffffffffff81111561106257611061611c1e565b5b6040519080825280601f01601f1916602001820160405280156110945781602001600182028036833780820191505090505b5090507f3000000000000000000000000000000000000000000000000000000000000000816000815181106110cc576110cb6127d9565b5b60200101907effffffffffffffffffffffffffffffffffffffffffffffffffffffffffffff1916908160001a9053507f7800000000000000000000000000000000000000000000000000000000000000816001815181106111305761112f6127d9565b5b60200101907effffffffffffffffffffffffffffffffffffffffffffffffffffffffffffff1916908160001a905350600060018460026111709190612763565b61117a91906127a5565b90505b600181111561121a577f3031323334353637383961626364656600000000000000000000000000000000600f8616601081106111bc576111bb6127d9565b5b1a60f81b8282815181106111d3576111d26127d9565b5b60200101907effffffffffffffffffffffffffffffffffffffffffffffffffffffffffffff1916908160001a905350600485901c94508061121390612808565b905061117d565b506000841461125e576040517f08c379a00000000000000000000000000000000000000000000000000000000081526004016112559061287d565b60405180910390fd5b8091505092915050565b600080600454905060018161127d91906127a5565b6004819055506000634042994660e01b60008087600001513089604001518760018c60800151600001516040516024016112be98979695949392919061292d565b604051602081830303815290604052907bffffffffffffffffffffffffffffffffffffffffffffffffffffffff19166020820180517bffffffffffffffffffffffffffffffffffffffffffffffffffffffff8381831617835250505050905061132986838684611537565b925050509392505050565b3373ffffffffffffffffffffffffffffffffffffffff168173ffffffffffffffffffffffffffffffffffffffff16036113a2576040517f08c379a0000000000000000000000000000000000000000000000000000000008152600401611399906129fe565b60405180910390fd5b80600760006101000a81548173ffffffffffffffffffffffffffffffffffffffff021916908373ffffffffffffffffffffffffffffffffffffffff1602179055508073ffffffffffffffffffffffffffffffffffffffff16600660009054906101000a900473ffffffffffffffffffffffffffffffffffffffff1673ffffffffffffffffffffffffffffffffffffffff167fed8889f560326eb138920d842192f0eb3dd22b4f139c87a2c57538e05bae127860405160405180910390a350565b61146a611b32565b61147a85608001516101006116cc565b508385600001818152505082856020019073ffffffffffffffffffffffffffffffffffffffff16908173ffffffffffffffffffffffffffffffffffffffff16815250508185604001907bffffffffffffffffffffffffffffffffffffffffffffffffffffffff191690817bffffffffffffffffffffffffffffffffffffffffffffffffffffffff191681525050849050949350505050565b61151f8260038351611736565b61153281836118bb90919063ffffffff16565b505050565b6000308460405160200161154c929190612acd565b604051602081830303815290604052805190602001209050846005600083815260200190815260200160002060006101000a81548173ffffffffffffffffffffffffffffffffffffffff021916908373ffffffffffffffffffffffffffffffffffffffff160217905550807fb5e6e01e79f91267dc17b4e6314d5d4d03593d2ceee0fbb452b750bd70ea5af960405160405180910390a2600260009054906101000a900473ffffffffffffffffffffffffffffffffffffffff1673ffffffffffffffffffffffffffffffffffffffff16634000aea08685856040518463ffffffff1660e01b815260040161164293929190612af9565b6020604051808303816000875af1158015611661573d6000803e3d6000fd5b505050506040513d601f19601f8201168201806040525081019061168591906123be565b6116c4576040517f08c379a00000000000000000000000000000000000000000000000000000000081526004016116bb90612ba9565b60405180910390fd5b949350505050565b6116d4611b9f565b60006020836116e39190612bf8565b1461170f576020826116f59190612bf8565b60206117019190612c29565b8261170c91906127a5565b91505b81836020018181525050604051808452600081528281016020016040525082905092915050565b60178167ffffffffffffffff161161176d576117678160058460ff16901b60ff1617846118dd90919063ffffffff16565b506118b6565b60ff8167ffffffffffffffff16116117c35761179c601860058460ff16901b17846118dd90919063ffffffff16565b506117bd8167ffffffffffffffff166001856118fd9092919063ffffffff16565b506118b5565b61ffff8167ffffffffffffffff161161181a576117f3601960058460ff16901b17846118dd90919063ffffffff16565b506118148167ffffffffffffffff166002856118fd9092919063ffffffff16565b506118b4565b63ffffffff8167ffffffffffffffff16116118735761184c601a60058460ff16901b17846118dd90919063ffffffff16565b5061186d8167ffffffffffffffff166004856118fd9092919063ffffffff16565b506118b3565b611890601b60058460ff16901b17846118dd90919063ffffffff16565b506118b18167ffffffffffffffff166008856118fd9092919063ffffffff16565b505b5b5b5b505050565b6118c3611b9f565b6118d58384600001515184855161191f565b905092915050565b6118e5611b9f565b6118f58384600001515184611a0e565b905092915050565b611905611b9f565b611916848560000151518585611a64565b90509392505050565b611927611b9f565b825182111561193557600080fd5b8460200151828561194691906127a5565b111561197b5761197a85600261196b8860200151888761196691906127a5565b611af2565b6119759190612763565b611b0e565b5b60008086518051876020830101935080888701111561199a5787860182525b60208701925050505b602084106119e157805182526020826119bc91906127a5565b91506020816119cb91906127a5565b90506020846119da9190612c29565b93506119a3565b60006001856020036101000a03905080198251168184511681811785525050508692505050949350505050565b611a16611b9f565b83602001518310611a3c57611a3b8460028660200151611a369190612763565b611b0e565b5b83518051602085830101848153818603611a57576001820183525b5050508390509392505050565b611a6c611b9f565b84602001518483611a7d91906127a5565b1115611aa557611aa48560028685611a9591906127a5565b611a9f9190612763565b611b0e565b5b6000600183610100611ab79190612d90565b611ac19190612c29565b90508551838682010185831982511617815281518588011115611ae45784870182525b505085915050949350505050565b600081831115611b0457829050611b08565b8190505b92915050565b600082600001519050611b2183836116cc565b50611b2c83826118bb565b50505050565b6040518060a0016040528060008019168152602001600073ffffffffffffffffffffffffffffffffffffffff16815260200160007bffffffffffffffffffffffffffffffffffffffffffffffffffffffff1916815260200160008152602001611b99611b9f565b81525090565b604051806040016040528060608152602001600081525090565b6000604051905090565b600080fd5b600080fd5b6000819050919050565b611be081611bcd565b8114611beb57600080fd5b50565b600081359050611bfd81611bd7565b92915050565b600080fd5b600080fd5b6000601f19601f8301169050919050565b7f4e487b7100000000000000000000000000000000000000000000000000000000600052604160045260246000fd5b611c5682611c0d565b810181811067ffffffffffffffff82111715611c7557611c74611c1e565b5b80604052505050565b6000611c88611bb9565b9050611c948282611c4d565b919050565b600067ffffffffffffffff821115611cb457611cb3611c1e565b5b611cbd82611c0d565b9050602081019050919050565b82818337600083830152505050565b6000611cec611ce784611c99565b611c7e565b905082815260208101848484011115611d0857611d07611c08565b5b611d13848285611cca565b509392505050565b600082601f830112611d3057611d2f611c03565b5b8135611d40848260208601611cd9565b91505092915050565b60008060408385031215611d6057611d5f611bc3565b5b6000611d6e85828601611bee565b925050602083013567ffffffffffffffff811115611d8f57611d8e611bc8565b5b611d9b85828601611d1b565b9150509250929050565b600073ffffffffffffffffffffffffffffffffffffffff82169050919050565b6000611dd082611da5565b9050919050565b611de081611dc5565b82525050565b6000602082019050611dfb6000830184611dd7565b92915050565b611e0a81611dc5565b8114611e1557600080fd5b50565b600081359050611e2781611e01565b92915050565b600060208284031215611e4357611e42611bc3565b5b6000611e5184828501611e18565b91505092915050565b6000819050919050565b611e6d81611e5a565b8114611e7857600080fd5b50565b600081359050611e8a81611e64565b92915050565b600060208284031215611ea657611ea5611bc3565b5b6000611eb484828501611e7b565b91505092915050565b611ec681611bcd565b82525050565b6000602082019050611ee16000830184611ebd565b92915050565b600067ffffffffffffffff821115611f0257611f01611c1e565b5b611f0b82611c0d565b9050602081019050919050565b6000611f2b611f2684611ee7565b611c7e565b905082815260208101848484011115611f4757611f46611c08565b5b611f52848285611cca565b509392505050565b600082601f830112611f6f57611f6e611c03565b5b8135611f7f848260208601611f18565b91505092915050565b600060208284031215611f9e57611f9d611bc3565b5b600082013567ffffffffffffffff811115611fbc57611fbb611bc8565b5b611fc884828501611f5a565b91505092915050565b600081519050919050565b600082825260208201905092915050565b60005b8381101561200b578082015181840152602081019050611ff0565b60008484015250505050565b600061202282611fd1565b61202c8185611fdc565b935061203c818560208601611fed565b61204581611c0d565b840191505092915050565b6000602082019050818103600083015261206a8184612017565b905092915050565b61207b81611e5a565b82525050565b60006020820190506120966000830184612072565b92915050565b6000819050919050565b6120af8161209c565b82525050565b60006020820190506120ca60008301846120a6565b92915050565b7f536f75726365206d75737420626520746865206f7261636c65206f662074686560008201527f2072657175657374000000000000000000000000000000000000000000000000602082015250565b600061212c602883611fdc565b9150612137826120d0565b604082019050919050565b6000602082019050818103600083015261215b8161211f565b9050919050565b7f4e487b7100000000000000000000000000000000000000000000000000000000600052602260045260246000fd5b600060028204905060018216806121a957607f821691505b6020821081036121bc576121bb612162565b5b50919050565b6000815490506121d181612191565b9050919050565b60008190508160005260206000209050919050565b60008160001c9050919050565b6000819050919050565b6000612217612212836121ed565b6121fa565b9050919050565b600061222a8254612204565b9050919050565b600082821b905092915050565b6000612249826121c2565b82601f82111561225f5761225c846121d8565b90505b6122688161221e565b925060208210156122a8576122a37fffffffffffffffffffffffffffffffffffffffffffffffffffffffffffffffff83602003600802612231565b831692505b5050919050565b7f4d7573742062652070726f706f736564206f776e657200000000000000000000600082015250565b60006122e5601683611fdc565b91506122f0826122af565b602082019050919050565b60006020820190508181036000830152612314816122d8565b9050919050565b60008151905061232a81611e64565b92915050565b60006020828403121561234657612345611bc3565b5b60006123548482850161231b565b91505092915050565b60006040820190506123726000830185611dd7565b61237f6020830184612072565b9392505050565b60008115159050919050565b61239b81612386565b81146123a657600080fd5b50565b6000815190506123b881612392565b92915050565b6000602082840312156123d4576123d3611bc3565b5b60006123e2848285016123a9565b91505092915050565b7f556e61626c6520746f207472616e736665720000000000000000000000000000600082015250565b6000612421601283611fdc565b915061242c826123eb565b602082019050919050565b6000602082019050818103600083015261245081612414565b9050919050565b60008190508160005260206000209050919050565b60006020601f8301049050919050565b6000600883026124ac7fffffffffffffffffffffffffffffffffffffffffffffffffffffffffffffffff82612231565b6124b68683612231565b95508019841693508086168417925050509392505050565b6000819050919050565b60006124f36124ee6124e984611e5a565b6124ce565b611e5a565b9050919050565b6000819050919050565b61250d836124d8565b612521612519826124fa565b84845461247c565b825550505050565b600090565b612536612529565b612541818484612504565b505050565b5b818110156125655761255a60008261252e565b600181019050612547565b5050565b601f8211156125aa5761257b81612457565b6125848461246c565b81016020851015612593578190505b6125a761259f8561246c565b830182612546565b50505b505050565b600082821c905092915050565b60006125cd600019846008026125af565b1980831691505092915050565b60006125e683836125bc565b9150826002028217905092915050565b6125ff82611fd1565b67ffffffffffffffff81111561261857612617611c1e565b5b6126228254612191565b61262d828285612569565b600060209050601f831160018114612660576000841561264e578287015190505b61265885826125da565b8655506126c0565b601f19841661266e86612457565b60005b8281101561269657848901518255600182019150602085019450602081019050612671565b868310156126b357848901516126af601f8916826125bc565b8355505b6001600288020188555050505b505050505050565b7f4f6e6c792063616c6c61626c65206279206f776e657200000000000000000000600082015250565b60006126fe601683611fdc565b9150612709826126c8565b602082019050919050565b6000602082019050818103600083015261272d816126f1565b9050919050565b7f4e487b7100000000000000000000000000000000000000000000000000000000600052601160045260246000fd5b600061276e82611e5a565b915061277983611e5a565b925082820261278781611e5a565b9150828204841483151761279e5761279d612734565b5b5092915050565b60006127b082611e5a565b91506127bb83611e5a565b92508282019050808211156127d3576127d2612734565b5b92915050565b7f4e487b7100000000000000000000000000000000000000000000000000000000600052603260045260246000fd5b600061281382611e5a565b91506000820361282657612825612734565b5b600182039050919050565b7f537472696e67733a20686578206c656e67746820696e73756666696369656e74600082015250565b6000612867602083611fdc565b915061287282612831565b602082019050919050565b600060208201905081810360008301526128968161285a565b9050919050565b60007fffffffff0000000000000000000000000000000000000000000000000000000082169050919050565b6128d28161289d565b82525050565b600081519050919050565b600082825260208201905092915050565b60006128ff826128d8565b61290981856128e3565b9350612919818560208601611fed565b61292281611c0d565b840191505092915050565b600061010082019050612943600083018b611dd7565b612950602083018a612072565b61295d6040830189611ebd565b61296a6060830188611dd7565b61297760808301876128c9565b61298460a0830186612072565b61299160c0830185612072565b81810360e08301526129a381846128f4565b90509998505050505050505050565b7f43616e6e6f74207472616e7366657220746f2073656c66000000000000000000600082015250565b60006129e8601783611fdc565b91506129f3826129b2565b602082019050919050565b60006020820190508181036000830152612a17816129db565b9050919050565b6000612a39612a34612a2f84611da5565b6124ce565b611da5565b9050919050565b6000612a4b82612a1e565b9050919050565b6000612a5d82612a40565b9050919050565b60008160601b9050919050565b6000612a7c82612a64565b9050919050565b6000612a8e82612a71565b9050919050565b612aa6612aa182612a52565b612a83565b82525050565b6000819050919050565b612ac7612ac282611e5a565b612aac565b82525050565b6000612ad98285612a95565b601482019150612ae98284612ab6565b6020820191508190509392505050565b6000606082019050612b0e6000830186611dd7565b612b1b6020830185612072565b8181036040830152612b2d81846128f4565b9050949350505050565b7f756e61626c6520746f207472616e73666572416e6443616c6c20746f206f726160008201527f636c650000000000000000000000000000000000000000000000000000000000602082015250565b6000612b93602383611fdc565b9150612b9e82612b37565b604082019050919050565b60006020820190508181036000830152612bc281612b86565b9050919050565b7f4e487b7100000000000000000000000000000000000000000000000000000000600052601260045260246000fd5b6000612c0382611e5a565b9150612c0e83611e5a565b925082612c1e57612c1d612bc9565b5b828206905092915050565b6000612c3482611e5a565b9150612c3f83611e5a565b9250828203905081811115612c5757612c56612734565b5b92915050565b60008160011c9050919050565b6000808291508390505b6001851115612cb457808604811115612c9057612c8f612734565b5b6001851615612c9f5780820291505b8081029050612cad85612c5d565b9450612c74565b94509492505050565b600082612ccd5760019050612d89565b81612cdb5760009050612d89565b8160018114612cf15760028114612cfb57612d2a565b6001915050612d89565b60ff841115612d0d57612d0c612734565b5b8360020a915084821115612d2457612d23612734565b5b50612d89565b5060208310610133831016604e8410600b8410161715612d5f5782820a905083811115612d5a57612d59612734565b5b612d89565b612d6c8484846001612c6a565b92509050818404811115612d8357612d82612734565b5b81810290505b9392505050565b6000612d9b82611e5a565b9150612da683611e5a565b9250612dd37fffffffffffffffffffffffffffffffffffffffffffffffffffffffffffffffff8484612cbd565b90509291505056fea26469706673582212205f8a95a29550a70553a3fc2f77030e84fb94b07f9f9879eb8d5c5afc7d52b02364736f6c63430008120033",
  "linkReferences": {},
  "deployedLinkReferences": {}
}